{
  "_format": "hh-sol-artifact-1",
  "contractName": "WrappedTON",
  "sourceName": "contracts/polygon/token/WrappedTON.sol",
  "abi": [
    {
      "inputs": [],
      "stateMutability": "nonpayable",
      "type": "constructor"
    },
    {
      "inputs": [],
      "name": "AccessControlBadConfirmation",
      "type": "error"
    },
    {
      "inputs": [
        {
          "internalType": "address",
          "name": "account",
          "type": "address"
        },
        {
          "internalType": "bytes32",
          "name": "neededRole",
          "type": "bytes32"
        }
      ],
      "name": "AccessControlUnauthorizedAccount",
      "type": "error"
    },
    {
      "inputs": [
        {
          "internalType": "address",
          "name": "target",
          "type": "address"
        }
      ],
      "name": "AddressEmptyCode",
      "type": "error"
    },
    {
      "inputs": [
        {
          "internalType": "address",
          "name": "implementation",
          "type": "address"
        }
      ],
      "name": "ERC1967InvalidImplementation",
      "type": "error"
    },
    {
      "inputs": [],
      "name": "ERC1967NonPayable",
      "type": "error"
    },
    {
      "inputs": [
        {
          "internalType": "address",
          "name": "spender",
          "type": "address"
        },
        {
          "internalType": "uint256",
          "name": "allowance",
          "type": "uint256"
        },
        {
          "internalType": "uint256",
          "name": "needed",
          "type": "uint256"
        }
      ],
      "name": "ERC20InsufficientAllowance",
      "type": "error"
    },
    {
      "inputs": [
        {
          "internalType": "address",
          "name": "sender",
          "type": "address"
        },
        {
          "internalType": "uint256",
          "name": "balance",
          "type": "uint256"
        },
        {
          "internalType": "uint256",
          "name": "needed",
          "type": "uint256"
        }
      ],
      "name": "ERC20InsufficientBalance",
      "type": "error"
    },
    {
      "inputs": [
        {
          "internalType": "address",
          "name": "approver",
          "type": "address"
        }
      ],
      "name": "ERC20InvalidApprover",
      "type": "error"
    },
    {
      "inputs": [
        {
          "internalType": "address",
          "name": "receiver",
          "type": "address"
        }
      ],
      "name": "ERC20InvalidReceiver",
      "type": "error"
    },
    {
      "inputs": [
        {
          "internalType": "address",
          "name": "sender",
          "type": "address"
        }
      ],
      "name": "ERC20InvalidSender",
      "type": "error"
    },
    {
      "inputs": [
        {
          "internalType": "address",
          "name": "spender",
          "type": "address"
        }
      ],
      "name": "ERC20InvalidSpender",
      "type": "error"
    },
    {
      "inputs": [],
      "name": "EnforcedPause",
      "type": "error"
    },
    {
      "inputs": [],
      "name": "ExpectedPause",
      "type": "error"
    },
    {
      "inputs": [],
      "name": "FailedCall",
      "type": "error"
    },
    {
      "inputs": [],
      "name": "InvalidInitialization",
      "type": "error"
    },
    {
      "inputs": [],
      "name": "NotInitializing",
      "type": "error"
    },
    {
      "inputs": [],
      "name": "UUPSUnauthorizedCallContext",
      "type": "error"
    },
    {
      "inputs": [
        {
          "internalType": "bytes32",
          "name": "slot",
          "type": "bytes32"
        }
      ],
      "name": "UUPSUnsupportedProxiableUUID",
      "type": "error"
    },
    {
      "anonymous": false,
      "inputs": [
        {
          "indexed": true,
          "internalType": "address",
          "name": "owner",
          "type": "address"
        },
        {
          "indexed": true,
          "internalType": "address",
          "name": "spender",
          "type": "address"
        },
        {
          "indexed": false,
          "internalType": "uint256",
          "name": "value",
          "type": "uint256"
        }
      ],
      "name": "Approval",
      "type": "event"
    },
    {
      "anonymous": false,
      "inputs": [
        {
          "indexed": true,
          "internalType": "address",
          "name": "oldBridge",
          "type": "address"
        },
        {
          "indexed": true,
          "internalType": "address",
          "name": "newBridge",
          "type": "address"
        }
      ],
      "name": "BridgeUpdated",
      "type": "event"
    },
    {
      "anonymous": false,
      "inputs": [
        {
          "indexed": false,
          "internalType": "uint64",
          "name": "version",
          "type": "uint64"
        }
      ],
      "name": "Initialized",
      "type": "event"
    },
    {
      "anonymous": false,
      "inputs": [
        {
          "indexed": false,
          "internalType": "address",
          "name": "account",
          "type": "address"
        }
      ],
      "name": "Paused",
      "type": "event"
    },
    {
      "anonymous": false,
      "inputs": [
        {
          "indexed": true,
          "internalType": "bytes32",
          "name": "role",
          "type": "bytes32"
        },
        {
          "indexed": true,
          "internalType": "bytes32",
          "name": "previousAdminRole",
          "type": "bytes32"
        },
        {
          "indexed": true,
          "internalType": "bytes32",
          "name": "newAdminRole",
          "type": "bytes32"
        }
      ],
      "name": "RoleAdminChanged",
      "type": "event"
    },
    {
      "anonymous": false,
      "inputs": [
        {
          "indexed": true,
          "internalType": "bytes32",
          "name": "role",
          "type": "bytes32"
        },
        {
          "indexed": true,
          "internalType": "address",
          "name": "account",
          "type": "address"
        },
        {
          "indexed": true,
          "internalType": "address",
          "name": "sender",
          "type": "address"
        }
      ],
      "name": "RoleGranted",
      "type": "event"
    },
    {
      "anonymous": false,
      "inputs": [
        {
          "indexed": true,
          "internalType": "bytes32",
          "name": "role",
          "type": "bytes32"
        },
        {
          "indexed": true,
          "internalType": "address",
          "name": "account",
          "type": "address"
        },
        {
          "indexed": true,
          "internalType": "address",
          "name": "sender",
          "type": "address"
        }
      ],
      "name": "RoleRevoked",
      "type": "event"
    },
    {
      "anonymous": false,
      "inputs": [
        {
          "indexed": true,
          "internalType": "address",
          "name": "from",
          "type": "address"
        },
        {
          "indexed": false,
          "internalType": "uint256",
          "name": "amount",
          "type": "uint256"
        },
        {
          "indexed": false,
          "internalType": "string",
          "name": "tonRecipient",
          "type": "string"
        }
      ],
      "name": "TokensBurned",
      "type": "event"
    },
    {
      "anonymous": false,
      "inputs": [
        {
          "indexed": true,
          "internalType": "address",
          "name": "to",
          "type": "address"
        },
        {
          "indexed": false,
          "internalType": "uint256",
          "name": "amount",
          "type": "uint256"
        },
        {
          "indexed": false,
          "internalType": "bytes32",
          "name": "tonTxHash",
          "type": "bytes32"
        }
      ],
      "name": "TokensMinted",
      "type": "event"
    },
    {
      "anonymous": false,
      "inputs": [
        {
          "indexed": true,
          "internalType": "address",
          "name": "from",
          "type": "address"
        },
        {
          "indexed": true,
          "internalType": "address",
          "name": "to",
          "type": "address"
        },
        {
          "indexed": false,
          "internalType": "uint256",
          "name": "value",
          "type": "uint256"
        }
      ],
      "name": "Transfer",
      "type": "event"
    },
    {
      "anonymous": false,
      "inputs": [
        {
          "indexed": false,
          "internalType": "address",
          "name": "account",
          "type": "address"
        }
      ],
      "name": "Unpaused",
      "type": "event"
    },
    {
      "anonymous": false,
      "inputs": [
        {
          "indexed": true,
          "internalType": "address",
          "name": "implementation",
          "type": "address"
        }
      ],
      "name": "Upgraded",
      "type": "event"
    },
    {
      "inputs": [],
      "name": "DEFAULT_ADMIN_ROLE",
      "outputs": [
        {
          "internalType": "bytes32",
          "name": "",
          "type": "bytes32"
        }
      ],
      "stateMutability": "view",
      "type": "function"
    },
    {
      "inputs": [],
      "name": "MINTER_ROLE",
      "outputs": [
        {
          "internalType": "bytes32",
          "name": "",
          "type": "bytes32"
        }
      ],
      "stateMutability": "view",
      "type": "function"
    },
    {
      "inputs": [],
      "name": "PAUSER_ROLE",
      "outputs": [
        {
          "internalType": "bytes32",
          "name": "",
          "type": "bytes32"
        }
      ],
      "stateMutability": "view",
      "type": "function"
    },
    {
      "inputs": [],
      "name": "UPGRADE_INTERFACE_VERSION",
      "outputs": [
        {
          "internalType": "string",
          "name": "",
          "type": "string"
        }
      ],
      "stateMutability": "view",
      "type": "function"
    },
    {
      "inputs": [
        {
          "internalType": "address",
          "name": "owner",
          "type": "address"
        },
        {
          "internalType": "address",
          "name": "spender",
          "type": "address"
        }
      ],
      "name": "allowance",
      "outputs": [
        {
          "internalType": "uint256",
          "name": "",
          "type": "uint256"
        }
      ],
      "stateMutability": "view",
      "type": "function"
    },
    {
      "inputs": [
        {
          "internalType": "address",
          "name": "spender",
          "type": "address"
        },
        {
          "internalType": "uint256",
          "name": "value",
          "type": "uint256"
        }
      ],
      "name": "approve",
      "outputs": [
        {
          "internalType": "bool",
          "name": "",
          "type": "bool"
        }
      ],
      "stateMutability": "nonpayable",
      "type": "function"
    },
    {
      "inputs": [
        {
          "internalType": "address",
          "name": "account",
          "type": "address"
        }
      ],
      "name": "balanceOf",
      "outputs": [
        {
          "internalType": "uint256",
          "name": "",
          "type": "uint256"
        }
      ],
      "stateMutability": "view",
      "type": "function"
    },
    {
      "inputs": [],
      "name": "bridge",
      "outputs": [
        {
          "internalType": "address",
          "name": "",
          "type": "address"
        }
      ],
      "stateMutability": "view",
      "type": "function"
    },
    {
      "inputs": [
        {
          "internalType": "uint256",
          "name": "value",
          "type": "uint256"
        }
      ],
      "name": "burn",
      "outputs": [],
      "stateMutability": "nonpayable",
      "type": "function"
    },
    {
      "inputs": [
        {
          "internalType": "uint256",
          "name": "amount",
          "type": "uint256"
        },
        {
          "internalType": "string",
          "name": "tonRecipient",
          "type": "string"
        }
      ],
      "name": "burnForBridge",
      "outputs": [],
      "stateMutability": "nonpayable",
      "type": "function"
    },
    {
      "inputs": [
        {
          "internalType": "address",
          "name": "account",
          "type": "address"
        },
        {
          "internalType": "uint256",
          "name": "value",
          "type": "uint256"
        }
      ],
      "name": "burnFrom",
      "outputs": [],
      "stateMutability": "nonpayable",
      "type": "function"
    },
    {
      "inputs": [],
      "name": "decimals",
      "outputs": [
        {
          "internalType": "uint8",
          "name": "",
          "type": "uint8"
        }
      ],
      "stateMutability": "pure",
      "type": "function"
    },
    {
      "inputs": [
        {
          "internalType": "bytes32",
          "name": "role",
          "type": "bytes32"
        }
      ],
      "name": "getRoleAdmin",
      "outputs": [
        {
          "internalType": "bytes32",
          "name": "",
          "type": "bytes32"
        }
      ],
      "stateMutability": "view",
      "type": "function"
    },
    {
      "inputs": [
        {
          "internalType": "bytes32",
          "name": "role",
          "type": "bytes32"
        },
        {
          "internalType": "address",
          "name": "account",
          "type": "address"
        }
      ],
      "name": "grantRole",
      "outputs": [],
      "stateMutability": "nonpayable",
      "type": "function"
    },
    {
      "inputs": [
        {
          "internalType": "bytes32",
          "name": "role",
          "type": "bytes32"
        },
        {
          "internalType": "address",
          "name": "account",
          "type": "address"
        }
      ],
      "name": "hasRole",
      "outputs": [
        {
          "internalType": "bool",
          "name": "",
          "type": "bool"
        }
      ],
      "stateMutability": "view",
      "type": "function"
    },
    {
      "inputs": [
        {
          "internalType": "address",
          "name": "_admin",
          "type": "address"
        },
        {
          "internalType": "address",
          "name": "_bridge",
          "type": "address"
        }
      ],
      "name": "initialize",
      "outputs": [],
      "stateMutability": "nonpayable",
      "type": "function"
    },
    {
      "inputs": [
        {
          "internalType": "address",
          "name": "to",
          "type": "address"
        },
        {
          "internalType": "uint256",
          "name": "amount",
          "type": "uint256"
        },
        {
          "internalType": "bytes32",
          "name": "tonTxHash",
          "type": "bytes32"
        }
      ],
      "name": "mint",
      "outputs": [],
      "stateMutability": "nonpayable",
      "type": "function"
    },
    {
      "inputs": [],
      "name": "name",
      "outputs": [
        {
          "internalType": "string",
          "name": "",
          "type": "string"
        }
      ],
      "stateMutability": "view",
      "type": "function"
    },
    {
      "inputs": [],
      "name": "pause",
      "outputs": [],
      "stateMutability": "nonpayable",
      "type": "function"
    },
    {
      "inputs": [],
      "name": "paused",
      "outputs": [
        {
          "internalType": "bool",
          "name": "",
          "type": "bool"
        }
      ],
      "stateMutability": "view",
      "type": "function"
    },
    {
      "inputs": [],
      "name": "proxiableUUID",
      "outputs": [
        {
          "internalType": "bytes32",
          "name": "",
          "type": "bytes32"
        }
      ],
      "stateMutability": "view",
      "type": "function"
    },
    {
      "inputs": [
        {
          "internalType": "bytes32",
          "name": "role",
          "type": "bytes32"
        },
        {
          "internalType": "address",
          "name": "callerConfirmation",
          "type": "address"
        }
      ],
      "name": "renounceRole",
      "outputs": [],
      "stateMutability": "nonpayable",
      "type": "function"
    },
    {
      "inputs": [
        {
          "internalType": "bytes32",
          "name": "role",
          "type": "bytes32"
        },
        {
          "internalType": "address",
          "name": "account",
          "type": "address"
        }
      ],
      "name": "revokeRole",
      "outputs": [],
      "stateMutability": "nonpayable",
      "type": "function"
    },
    {
      "inputs": [
        {
          "internalType": "bytes4",
          "name": "interfaceId",
          "type": "bytes4"
        }
      ],
      "name": "supportsInterface",
      "outputs": [
        {
          "internalType": "bool",
          "name": "",
          "type": "bool"
        }
      ],
      "stateMutability": "view",
      "type": "function"
    },
    {
      "inputs": [],
      "name": "symbol",
      "outputs": [
        {
          "internalType": "string",
          "name": "",
          "type": "string"
        }
      ],
      "stateMutability": "view",
      "type": "function"
    },
    {
      "inputs": [],
      "name": "totalSupply",
      "outputs": [
        {
          "internalType": "uint256",
          "name": "",
          "type": "uint256"
        }
      ],
      "stateMutability": "view",
      "type": "function"
    },
    {
      "inputs": [
        {
          "internalType": "address",
          "name": "to",
          "type": "address"
        },
        {
          "internalType": "uint256",
          "name": "value",
          "type": "uint256"
        }
      ],
      "name": "transfer",
      "outputs": [
        {
          "internalType": "bool",
          "name": "",
          "type": "bool"
        }
      ],
      "stateMutability": "nonpayable",
      "type": "function"
    },
    {
      "inputs": [
        {
          "internalType": "address",
          "name": "from",
          "type": "address"
        },
        {
          "internalType": "address",
          "name": "to",
          "type": "address"
        },
        {
          "internalType": "uint256",
          "name": "value",
          "type": "uint256"
        }
      ],
      "name": "transferFrom",
      "outputs": [
        {
          "internalType": "bool",
          "name": "",
          "type": "bool"
        }
      ],
      "stateMutability": "nonpayable",
      "type": "function"
    },
    {
      "inputs": [],
      "name": "unpause",
      "outputs": [],
      "stateMutability": "nonpayable",
      "type": "function"
    },
    {
      "inputs": [
        {
          "internalType": "address",
          "name": "newBridge",
          "type": "address"
        }
      ],
      "name": "updateBridge",
      "outputs": [],
      "stateMutability": "nonpayable",
      "type": "function"
    },
    {
      "inputs": [
        {
          "internalType": "address",
          "name": "newImplementation",
          "type": "address"
        },
        {
          "internalType": "bytes",
          "name": "data",
          "type": "bytes"
        }
      ],
      "name": "upgradeToAndCall",
      "outputs": [],
      "stateMutability": "payable",
      "type": "function"
    }
  ],
  "bytecode": "0x60a060405230608052348015610013575f5ffd5b5061001c610021565b6100d3565b7ff0c57e16840df040f15088dc2f81fe391c3923bec73e23a9662efc9c229c6a00805468010000000000000000900460ff16156100715760405163f92ee8a960e01b815260040160405180910390fd5b80546001600160401b03908116146100d05780546001600160401b0319166001600160401b0390811782556040519081527fc7f505b2f371ae2175ee4913f4499e1f2633a7b5936321eed1cdaeb6115181d29060200160405180910390a15b50565b608051611d696100f95f395f81816110e30152818161110c015261124d0152611d695ff3fe6080604052600436106101d0575f3560e01c80635c975abb116100fd578063a9059cbb11610092578063d70d7c7811610062578063d70d7c781461053f578063dd62ed3e1461055e578063e63ab1e91461057d578063e78cea92146105b0575f5ffd5b8063a9059cbb146104b1578063ad3cb1cc146104d0578063d539139314610500578063d547741f14610520575f5ffd5b80638456cb59116100cd5780638456cb591461045757806391d148541461046b57806395d89b411461048a578063a217fddf1461049e575f5ffd5b80635c975abb146103b65780636eb38212146103d957806370a08231146103f857806379cc679014610438575f5ffd5b80632f2ff15d1161017357806342966c681161014357806342966c6814610351578063485cc955146103705780634f1ef2861461038f57806352d1902d146103a2575f5ffd5b80632f2ff15d146102e4578063313ce5671461030357806336568abe1461031e5780633f4ba83a1461033d575f5ffd5b806318160ddd116101ae57806318160ddd146102485780631e458bee1461028557806323b872dd146102a6578063248a9ca3146102c5575f5ffd5b806301ffc9a7146101d457806306fdde0314610208578063095ea7b314610229575b5f5ffd5b3480156101df575f5ffd5b506101f36101ee366004611801565b6105e6565b60405190151581526020015b60405180910390f35b348015610213575f5ffd5b5061021c61061c565b6040516101ff9190611828565b348015610234575f5ffd5b506101f3610243366004611878565b6106dc565b348015610253575f5ffd5b507f52c63247e1f47db19d5ce0460030c497f067ca4cebf71ba98eeadabe20bace02545b6040519081526020016101ff565b348015610290575f5ffd5b506102a461029f3660046118a0565b6106f3565b005b3480156102b1575f5ffd5b506101f36102c03660046118d0565b6107ed565b3480156102d0575f5ffd5b506102776102df36600461190a565b610812565b3480156102ef575f5ffd5b506102a46102fe366004611921565b610832565b34801561030e575f5ffd5b50604051600981526020016101ff565b348015610329575f5ffd5b506102a4610338366004611921565b610854565b348015610348575f5ffd5b506102a461088c565b34801561035c575f5ffd5b506102a461036b36600461190a565b6108a1565b34801561037b575f5ffd5b506102a461038a36600461194b565b6108ab565b6102a461039d366004611987565b610ac3565b3480156103ad575f5ffd5b50610277610ae2565b3480156103c1575f5ffd5b505f516020611d145f395f51905f525460ff166101f3565b3480156103e4575f5ffd5b506102a46103f3366004611a4b565b610afd565b348015610403575f5ffd5b50610277610412366004611a4b565b6001600160a01b03165f9081525f516020611c945f395f51905f52602052604090205490565b348015610443575f5ffd5b506102a4610452366004611878565b610bdf565b348015610462575f5ffd5b506102a4610bf4565b348015610476575f5ffd5b506101f3610485366004611921565b610c26565b348015610495575f5ffd5b5061021c610c5c565b3480156104a9575f5ffd5b506102775f81565b3480156104bc575f5ffd5b506101f36104cb366004611878565b610c9a565b3480156104db575f5ffd5b5061021c604051806040016040528060058152602001640352e302e360dc1b81525081565b34801561050b575f5ffd5b506102775f516020611cd45f395f51905f5281565b34801561052b575f5ffd5b506102a461053a366004611921565b610ca7565b34801561054a575f5ffd5b506102a4610559366004611a64565b610cc3565b348015610569575f5ffd5b5061027761057836600461194b565b610d98565b348015610588575f5ffd5b506102777f65d7a28e3265b37a6474929f336521b332c1681b933f6cb9f3376673440d862a81565b3480156105bb575f5ffd5b505f546105ce906001600160a01b031681565b6040516001600160a01b0390911681526020016101ff565b5f6001600160e01b03198216637965db0b60e01b148061061657506301ffc9a760e01b6001600160e01b03198316145b92915050565b7f52c63247e1f47db19d5ce0460030c497f067ca4cebf71ba98eeadabe20bace0380546060915f516020611c945f395f51905f529161065a90611adb565b80601f016020809104026020016040519081016040528092919081815260200182805461068690611adb565b80156106d15780601f106106a8576101008083540402835291602001916106d1565b820191905f5260205f20905b8154815290600101906020018083116106b457829003601f168201915b505050505091505090565b5f336106e9818585610de1565b5060019392505050565b5f516020611cd45f395f51905f5261070a81610dee565b6001600160a01b0384166107595760405162461bcd60e51b8152602060048201526011602482015270125b9d985b1a59081c9958da5c1a595b9d607a1b60448201526064015b60405180910390fd5b5f83116107995760405162461bcd60e51b815260206004820152600e60248201526d125b9d985b1a5908185b5bdd5b9d60921b6044820152606401610750565b6107a38484610df8565b60408051848152602081018490526001600160a01b038616917f7369d801113c713520ca653010d32c6bcd6778f0ffb3df0bc9efb8d85b687e44910160405180910390a250505050565b5f336107fa858285610e2c565b610805858585610e8a565b60019150505b9392505050565b5f9081525f516020611cf45f395f51905f52602052604090206001015490565b61083b82610812565b61084481610dee565b61084e8383610ee7565b50505050565b6001600160a01b038116331461087d5760405163334bd91960e11b815260040160405180910390fd5b6108878282610f88565b505050565b5f61089681610dee565b61089e611001565b50565b61089e3382611060565b5f6108b4611094565b805490915060ff600160401b820416159067ffffffffffffffff165f811580156108db5750825b90505f8267ffffffffffffffff1660011480156108f75750303b155b905081158015610905575080155b156109235760405163f92ee8a960e01b815260040160405180910390fd5b845467ffffffffffffffff19166001178555831561094d57845460ff60401b1916600160401b1785555b6001600160a01b0387166109935760405162461bcd60e51b815260206004820152600d60248201526c24b73b30b634b21030b236b4b760991b6044820152606401610750565b6109dc6040518060400160405280600b81526020016a2bb930b83832b2102a27a760a91b815250604051806040016040528060048152602001633baa27a760e11b8152506110bc565b6109e46110ce565b6109ec6110ce565b6109f46110ce565b6109fc6110ce565b610a065f88610ee7565b50610a317f65d7a28e3265b37a6474929f336521b332c1681b933f6cb9f3376673440d862a88610ee7565b506001600160a01b03861615610a7457610a585f516020611cd45f395f51905f5287610ee7565b505f80546001600160a01b0319166001600160a01b0388161790555b8315610aba57845460ff60401b19168555604051600181527fc7f505b2f371ae2175ee4913f4499e1f2633a7b5936321eed1cdaeb6115181d29060200160405180910390a15b50505050505050565b610acb6110d8565b610ad48261117c565b610ade8282611186565b5050565b5f610aeb611242565b505f516020611cb45f395f51905f5290565b5f610b0781610dee565b6001600160a01b038216610b4e5760405162461bcd60e51b815260206004820152600e60248201526d496e76616c69642062726964676560901b6044820152606401610750565b5f546001600160a01b03168015610b7857610b765f516020611cd45f395f51905f5282610f88565b505b610b8f5f516020611cd45f395f51905f5284610ee7565b505f80546001600160a01b0319166001600160a01b0385811691821783556040519192908416917faae9beddccf584528e87b66c6ff2563825c8a1433305b8a656e9b5f9bf3904999190a3505050565b610bea823383610e2c565b610ade8282611060565b7f65d7a28e3265b37a6474929f336521b332c1681b933f6cb9f3376673440d862a610c1e81610dee565b61089e61128b565b5f9182525f516020611cf45f395f51905f52602090815260408084206001600160a01b0393909316845291905290205460ff1690565b7f52c63247e1f47db19d5ce0460030c497f067ca4cebf71ba98eeadabe20bace0480546060915f516020611c945f395f51905f529161065a90611adb565b5f336106e9818585610e8a565b610cb082610812565b610cb981610dee565b61084e8383610f88565b80610d045760405162461bcd60e51b8152602060048201526011602482015270125b9d985b1a59081c9958da5c1a595b9d607a1b6044820152606401610750565b5f8311610d445760405162461bcd60e51b815260206004820152600e60248201526d125b9d985b1a5908185b5bdd5b9d60921b6044820152606401610750565b610d4e3384611060565b336001600160a01b03167ffad31924d655455395c87544c8aa1ffdb5a7505a22a3c2e03f28003b6556a75f848484604051610d8b93929190611b13565b60405180910390a2505050565b6001600160a01b039182165f9081527f52c63247e1f47db19d5ce0460030c497f067ca4cebf71ba98eeadabe20bace016020908152604080832093909416825291909152205490565b61088783838360016112d3565b61089e81336113b7565b6001600160a01b038216610e215760405163ec442f0560e01b81525f6004820152602401610750565b610ade5f83836113f0565b5f610e378484610d98565b90505f1981101561084e5781811015610e7c57604051637dc7a0d960e11b81526001600160a01b03841660048201526024810182905260448101839052606401610750565b61084e84848484035f6112d3565b6001600160a01b038316610eb357604051634b637e8f60e11b81525f6004820152602401610750565b6001600160a01b038216610edc5760405163ec442f0560e01b81525f6004820152602401610750565b6108878383836113f0565b5f5f516020611cf45f395f51905f52610f008484610c26565b610f7f575f848152602082815260408083206001600160a01b03871684529091529020805460ff19166001179055610f353390565b6001600160a01b0316836001600160a01b0316857f2f8788117e7eff1d82e926ec794901d17c78024a50270940304540a733656f0d60405160405180910390a46001915050610616565b5f915050610616565b5f5f516020611cf45f395f51905f52610fa18484610c26565b15610f7f575f848152602082815260408083206001600160a01b0387168085529252808320805460ff1916905551339287917ff6391f5c32d9c69d2a47ea670b442974b53935d1edc7fd64eb21e047a839171b9190a46001915050610616565b6110096113fb565b5f516020611d145f395f51905f52805460ff191681557f5db9ee0a495bf2e6ff9c91a7834c1ba4fdd244a5e8aa4e537bd38aeae4b073aa335b6040516001600160a01b03909116815260200160405180910390a150565b6001600160a01b03821661108957604051634b637e8f60e11b81525f6004820152602401610750565b610ade825f836113f0565b5f807ff0c57e16840df040f15088dc2f81fe391c3923bec73e23a9662efc9c229c6a00610616565b6110c461142a565b610ade828261144f565b6110d661142a565b565b306001600160a01b037f000000000000000000000000000000000000000000000000000000000000000016148061115e57507f00000000000000000000000000000000000000000000000000000000000000006001600160a01b03166111525f516020611cb45f395f51905f52546001600160a01b031690565b6001600160a01b031614155b156110d65760405163703e46dd60e11b815260040160405180910390fd5b5f610ade81610dee565b816001600160a01b03166352d1902d6040518163ffffffff1660e01b8152600401602060405180830381865afa9250505080156111e0575060408051601f3d908101601f191682019092526111dd91810190611b48565b60015b61120857604051634c9c8ce360e01b81526001600160a01b0383166004820152602401610750565b5f516020611cb45f395f51905f52811461123857604051632a87526960e21b815260048101829052602401610750565b610887838361149f565b306001600160a01b037f000000000000000000000000000000000000000000000000000000000000000016146110d65760405163703e46dd60e11b815260040160405180910390fd5b6112936114f4565b5f516020611d145f395f51905f52805460ff191660011781557f62e78cea01bee320cd4e420270b5ea74000d11b0c9f74754ebdbfc544b05a25833611042565b5f516020611c945f395f51905f526001600160a01b03851661130a5760405163e602df0560e01b81525f6004820152602401610750565b6001600160a01b03841661133357604051634a1406b160e11b81525f6004820152602401610750565b6001600160a01b038086165f908152600183016020908152604080832093881683529290522083905581156113b057836001600160a01b0316856001600160a01b03167f8c5be1e5ebec7d5bd14f71427d1e84f3dd0314c0f7b2291e5b200ac8c7c3b925856040516113a791815260200190565b60405180910390a35b5050505050565b6113c18282610c26565b610ade5760405163e2517d3f60e01b81526001600160a01b038216600482015260248101839052604401610750565b610887838383611524565b5f516020611d145f395f51905f525460ff166110d657604051638dfc202b60e01b815260040160405180910390fd5b611432611537565b6110d657604051631afcd79f60e31b815260040160405180910390fd5b61145761142a565b5f516020611c945f395f51905f527f52c63247e1f47db19d5ce0460030c497f067ca4cebf71ba98eeadabe20bace036114908482611ba3565b506004810161084e8382611ba3565b6114a882611550565b6040516001600160a01b038316907fbc7cd75a20ee27fd9adebab32041f755214dbc6bffa90cc0225b39da2e5c2d3b905f90a28051156114ec5761088782826115b3565b610ade611625565b5f516020611d145f395f51905f525460ff16156110d65760405163d93c066560e01b815260040160405180910390fd5b61152c6114f4565b610887838383611644565b5f611540611094565b54600160401b900460ff16919050565b806001600160a01b03163b5f0361158557604051634c9c8ce360e01b81526001600160a01b0382166004820152602401610750565b5f516020611cb45f395f51905f5280546001600160a01b0319166001600160a01b0392909216919091179055565b60605f5f846001600160a01b0316846040516115cf9190611c5e565b5f60405180830381855af49150503d805f8114611607576040519150601f19603f3d011682016040523d82523d5f602084013e61160c565b606091505b509150915061161c85838361177d565b95945050505050565b34156110d65760405163b398979f60e01b815260040160405180910390fd5b5f516020611c945f395f51905f526001600160a01b03841661167e5781816002015f8282546116739190611c74565b909155506116ee9050565b6001600160a01b0384165f90815260208290526040902054828110156116d05760405163391434e360e21b81526001600160a01b03861660048201526024810182905260448101849052606401610750565b6001600160a01b0385165f9081526020839052604090209083900390555b6001600160a01b03831661170c57600281018054839003905561172a565b6001600160a01b0383165f9081526020829052604090208054830190555b826001600160a01b0316846001600160a01b03167fddf252ad1be2c89b69c2b068fc378daa952ba7f163c4a11628f55a4df523b3ef8460405161176f91815260200190565b60405180910390a350505050565b6060826117925761178d826117d9565b61080b565b81511580156117a957506001600160a01b0384163b155b156117d257604051639996b31560e01b81526001600160a01b0385166004820152602401610750565b508061080b565b8051156117e857805160208201fd5b60405163d6bda27560e01b815260040160405180910390fd5b5f60208284031215611811575f5ffd5b81356001600160e01b03198116811461080b575f5ffd5b602081525f82518060208401528060208501604085015e5f604082850101526040601f19601f83011684010191505092915050565b80356001600160a01b0381168114611873575f5ffd5b919050565b5f5f60408385031215611889575f5ffd5b6118928361185d565b946020939093013593505050565b5f5f5f606084860312156118b2575f5ffd5b6118bb8461185d565b95602085013595506040909401359392505050565b5f5f5f606084860312156118e2575f5ffd5b6118eb8461185d565b92506118f96020850161185d565b929592945050506040919091013590565b5f6020828403121561191a575f5ffd5b5035919050565b5f5f60408385031215611932575f5ffd5b823591506119426020840161185d565b90509250929050565b5f5f6040838503121561195c575f5ffd5b6119658361185d565b91506119426020840161185d565b634e487b7160e01b5f52604160045260245ffd5b5f5f60408385031215611998575f5ffd5b6119a18361185d565b9150602083013567ffffffffffffffff8111156119bc575f5ffd5b8301601f810185136119cc575f5ffd5b803567ffffffffffffffff8111156119e6576119e6611973565b604051601f8201601f19908116603f0116810167ffffffffffffffff81118282101715611a1557611a15611973565b604052818152828201602001871015611a2c575f5ffd5b816020840160208301375f602083830101528093505050509250929050565b5f60208284031215611a5b575f5ffd5b61080b8261185d565b5f5f5f60408486031215611a76575f5ffd5b83359250602084013567ffffffffffffffff811115611a93575f5ffd5b8401601f81018613611aa3575f5ffd5b803567ffffffffffffffff811115611ab9575f5ffd5b866020828401011115611aca575f5ffd5b939660209190910195509293505050565b600181811c90821680611aef57607f821691505b602082108103611b0d57634e487b7160e01b5f52602260045260245ffd5b50919050565b83815260406020820152816040820152818360608301375f818301606090810191909152601f909201601f1916010192915050565b5f60208284031215611b58575f5ffd5b5051919050565b601f82111561088757805f5260205f20601f840160051c81016020851015611b845750805b601f840160051c820191505b818110156113b0575f8155600101611b90565b815167ffffffffffffffff811115611bbd57611bbd611973565b611bd181611bcb8454611adb565b84611b5f565b6020601f821160018114611c03575f8315611bec5750848201515b5f19600385901b1c1916600184901b1784556113b0565b5f84815260208120601f198516915b82811015611c325787850151825560209485019460019092019101611c12565b5084821015611c4f57868401515f19600387901b60f8161c191681555b50505050600190811b01905550565b5f82518060208501845e5f920191825250919050565b8082018082111561061657634e487b7160e01b5f52601160045260245ffdfe52c63247e1f47db19d5ce0460030c497f067ca4cebf71ba98eeadabe20bace00360894a13ba1a3210667c828492db98dca3e2076cc3735a920a3ca505d382bbc9f2df0fed2c77648de5860a4cc508cd0818c85b8b8a1ab4ceeef8d981c8956a602dd7bc7dec4dceedda775e58dd541e08a116c6c53815c0bd028192f7b626800cd5ed15c6e187e77e9aee88184c21f4f2182ab5827cb3b7e07fbedcd63f03300a2646970667358221220fa1adabb84d498a00e9b4432bf38d43d5b8769270704ced5f82b07262f23057b64736f6c634300081b0033",
  "linkReferences": {},
  "deployedLinkReferences": {}
}