{
  "_format": "hh3-artifact-1",
  "contractName": "PolygonBridge",
  "sourceName": "contracts/polygon/bridge/PolygonBridge.sol",
  "abi": [
    {
      "inputs": [],
      "stateMutability": "nonpayable",
      "type": "constructor"
    },
    {
      "inputs": [],
      "name": "AccessControlBadConfirmation",
      "type": "error"
    },
    {
      "inputs": [
        {
          "internalType": "address",
          "name": "account",
          "type": "address"
        },
        {
          "internalType": "bytes32",
          "name": "neededRole",
          "type": "bytes32"
        }
      ],
      "name": "AccessControlUnauthorizedAccount",
      "type": "error"
    },
    {
      "inputs": [],
      "name": "AlreadyConfirmed",
      "type": "error"
    },
    {
      "inputs": [],
      "name": "EnforcedPause",
      "type": "error"
    },
    {
      "inputs": [],
      "name": "ExceedsMaxAmount",
      "type": "error"
    },
    {
      "inputs": [],
      "name": "ExpectedPause",
      "type": "error"
    },
    {
      "inputs": [],
      "name": "InsufficientAmount",
      "type": "error"
    },
    {
      "inputs": [],
      "name": "InsufficientConfirmations",
      "type": "error"
    },
    {
      "inputs": [],
      "name": "InvalidConfiguration",
      "type": "error"
    },
    {
      "inputs": [],
      "name": "InvalidInitialization",
      "type": "error"
    },
    {
      "inputs": [],
      "name": "InvalidRecipient",
      "type": "error"
    },
    {
      "inputs": [],
      "name": "NotInitializing",
      "type": "error"
    },
    {
      "inputs": [],
      "name": "ReentrancyGuardReentrantCall",
      "type": "error"
    },
    {
      "inputs": [
        {
          "internalType": "address",
          "name": "token",
          "type": "address"
        }
      ],
      "name": "SafeERC20FailedOperation",
      "type": "error"
    },
    {
      "inputs": [],
      "name": "TransferAlreadyProcessed",
      "type": "error"
    },
    {
      "inputs": [],
      "name": "TransferNotFound",
      "type": "error"
    },
    {
      "inputs": [],
      "name": "UnsupportedToken",
      "type": "error"
    },
    {
      "anonymous": false,
      "inputs": [
        {
          "indexed": true,
          "internalType": "bytes32",
          "name": "transferId",
          "type": "bytes32"
        },
        {
          "indexed": false,
          "internalType": "string",
          "name": "reason",
          "type": "string"
        }
      ],
      "name": "BridgeCancelled",
      "type": "event"
    },
    {
      "anonymous": false,
      "inputs": [
        {
          "indexed": true,
          "internalType": "bytes32",
          "name": "transferId",
          "type": "bytes32"
        },
        {
          "indexed": false,
          "internalType": "bytes32",
          "name": "tonTxHash",
          "type": "bytes32"
        }
      ],
      "name": "BridgeCompleted",
      "type": "event"
    },
    {
      "anonymous": false,
      "inputs": [
        {
          "indexed": true,
          "internalType": "bytes32",
          "name": "transferId",
          "type": "bytes32"
        },
        {
          "indexed": true,
          "internalType": "address",
          "name": "relayer",
          "type": "address"
        },
        {
          "indexed": false,
          "internalType": "uint256",
          "name": "confirmations",
          "type": "uint256"
        }
      ],
      "name": "BridgeConfirmed",
      "type": "event"
    },
    {
      "anonymous": false,
      "inputs": [
        {
          "indexed": true,
          "internalType": "bytes32",
          "name": "transferId",
          "type": "bytes32"
        },
        {
          "indexed": true,
          "internalType": "address",
          "name": "sender",
          "type": "address"
        },
        {
          "indexed": false,
          "internalType": "string",
          "name": "tonRecipient",
          "type": "string"
        },
        {
          "indexed": false,
          "internalType": "address",
          "name": "token",
          "type": "address"
        },
        {
          "indexed": false,
          "internalType": "uint256",
          "name": "amount",
          "type": "uint256"
        },
        {
          "indexed": false,
          "internalType": "uint256",
          "name": "fee",
          "type": "uint256"
        }
      ],
      "name": "BridgeInitiated",
      "type": "event"
    },
    {
      "anonymous": false,
      "inputs": [
        {
          "indexed": false,
          "internalType": "uint256",
          "name": "minAmount",
          "type": "uint256"
        },
        {
          "indexed": false,
          "internalType": "uint256",
          "name": "maxAmount",
          "type": "uint256"
        },
        {
          "indexed": false,
          "internalType": "uint256",
          "name": "feeBps",
          "type": "uint256"
        },
        {
          "indexed": false,
          "internalType": "uint256",
          "name": "threshold",
          "type": "uint256"
        }
      ],
      "name": "ConfigUpdated",
      "type": "event"
    },
    {
      "anonymous": false,
      "inputs": [
        {
          "indexed": false,
          "internalType": "uint64",
          "name": "version",
          "type": "uint64"
        }
      ],
      "name": "Initialized",
      "type": "event"
    },
    {
      "anonymous": false,
      "inputs": [
        {
          "indexed": false,
          "internalType": "address",
          "name": "account",
          "type": "address"
        }
      ],
      "name": "Paused",
      "type": "event"
    },
    {
      "anonymous": false,
      "inputs": [
        {
          "indexed": true,
          "internalType": "bytes32",
          "name": "role",
          "type": "bytes32"
        },
        {
          "indexed": true,
          "internalType": "bytes32",
          "name": "previousAdminRole",
          "type": "bytes32"
        },
        {
          "indexed": true,
          "internalType": "bytes32",
          "name": "newAdminRole",
          "type": "bytes32"
        }
      ],
      "name": "RoleAdminChanged",
      "type": "event"
    },
    {
      "anonymous": false,
      "inputs": [
        {
          "indexed": true,
          "internalType": "bytes32",
          "name": "role",
          "type": "bytes32"
        },
        {
          "indexed": true,
          "internalType": "address",
          "name": "account",
          "type": "address"
        },
        {
          "indexed": true,
          "internalType": "address",
          "name": "sender",
          "type": "address"
        }
      ],
      "name": "RoleGranted",
      "type": "event"
    },
    {
      "anonymous": false,
      "inputs": [
        {
          "indexed": true,
          "internalType": "bytes32",
          "name": "role",
          "type": "bytes32"
        },
        {
          "indexed": true,
          "internalType": "address",
          "name": "account",
          "type": "address"
        },
        {
          "indexed": true,
          "internalType": "address",
          "name": "sender",
          "type": "address"
        }
      ],
      "name": "RoleRevoked",
      "type": "event"
    },
    {
      "anonymous": false,
      "inputs": [
        {
          "indexed": true,
          "internalType": "address",
          "name": "token",
          "type": "address"
        },
        {
          "indexed": false,
          "internalType": "bool",
          "name": "supported",
          "type": "bool"
        }
      ],
      "name": "TokenSupported",
      "type": "event"
    },
    {
      "anonymous": false,
      "inputs": [
        {
          "indexed": true,
          "internalType": "bytes32",
          "name": "transferId",
          "type": "bytes32"
        },
        {
          "indexed": true,
          "internalType": "address",
          "name": "recipient",
          "type": "address"
        },
        {
          "indexed": false,
          "internalType": "address",
          "name": "token",
          "type": "address"
        },
        {
          "indexed": false,
          "internalType": "uint256",
          "name": "amount",
          "type": "uint256"
        }
      ],
      "name": "TokenUnlocked",
      "type": "event"
    },
    {
      "anonymous": false,
      "inputs": [
        {
          "indexed": false,
          "internalType": "address",
          "name": "account",
          "type": "address"
        }
      ],
      "name": "Unpaused",
      "type": "event"
    },
    {
      "inputs": [],
      "name": "DEFAULT_ADMIN_ROLE",
      "outputs": [
        {
          "internalType": "bytes32",
          "name": "",
          "type": "bytes32"
        }
      ],
      "stateMutability": "view",
      "type": "function"
    },
    {
      "inputs": [],
      "name": "OPERATOR_ROLE",
      "outputs": [
        {
          "internalType": "bytes32",
          "name": "",
          "type": "bytes32"
        }
      ],
      "stateMutability": "view",
      "type": "function"
    },
    {
      "inputs": [],
      "name": "PAUSER_ROLE",
      "outputs": [
        {
          "internalType": "bytes32",
          "name": "",
          "type": "bytes32"
        }
      ],
      "stateMutability": "view",
      "type": "function"
    },
    {
      "inputs": [],
      "name": "RELAYER_ROLE",
      "outputs": [
        {
          "internalType": "bytes32",
          "name": "",
          "type": "bytes32"
        }
      ],
      "stateMutability": "view",
      "type": "function"
    },
    {
      "inputs": [
        {
          "internalType": "string",
          "name": "tonRecipient",
          "type": "string"
        },
        {
          "internalType": "address",
          "name": "token",
          "type": "address"
        },
        {
          "internalType": "uint256",
          "name": "amount",
          "type": "uint256"
        }
      ],
      "name": "bridgeToTON",
      "outputs": [
        {
          "internalType": "bytes32",
          "name": "transferId",
          "type": "bytes32"
        }
      ],
      "stateMutability": "payable",
      "type": "function"
    },
    {
      "inputs": [],
      "name": "collectedFees",
      "outputs": [
        {
          "internalType": "uint256",
          "name": "",
          "type": "uint256"
        }
      ],
      "stateMutability": "view",
      "type": "function"
    },
    {
      "inputs": [
        {
          "internalType": "bytes32",
          "name": "transferId",
          "type": "bytes32"
        },
        {
          "internalType": "bytes32",
          "name": "tonTxHash",
          "type": "bytes32"
        }
      ],
      "name": "completeTransfer",
      "outputs": [],
      "stateMutability": "nonpayable",
      "type": "function"
    },
    {
      "inputs": [],
      "name": "config",
      "outputs": [
        {
          "internalType": "uint256",
          "name": "minBridgeAmount",
          "type": "uint256"
        },
        {
          "internalType": "uint256",
          "name": "maxBridgeAmount",
          "type": "uint256"
        },
        {
          "internalType": "uint256",
          "name": "feeBasisPoints",
          "type": "uint256"
        },
        {
          "internalType": "uint256",
          "name": "relayerThreshold",
          "type": "uint256"
        },
        {
          "internalType": "bool",
          "name": "enabled",
          "type": "bool"
        }
      ],
      "stateMutability": "view",
      "type": "function"
    },
    {
      "inputs": [
        {
          "internalType": "bytes32",
          "name": "transferId",
          "type": "bytes32"
        }
      ],
      "name": "confirmTransfer",
      "outputs": [],
      "stateMutability": "nonpayable",
      "type": "function"
    },
    {
      "inputs": [],
      "name": "feeCollector",
      "outputs": [
        {
          "internalType": "address",
          "name": "",
          "type": "address"
        }
      ],
      "stateMutability": "view",
      "type": "function"
    },
    {
      "inputs": [
        {
          "internalType": "bytes32",
          "name": "role",
          "type": "bytes32"
        }
      ],
      "name": "getRoleAdmin",
      "outputs": [
        {
          "internalType": "bytes32",
          "name": "",
          "type": "bytes32"
        }
      ],
      "stateMutability": "view",
      "type": "function"
    },
    {
      "inputs": [
        {
          "internalType": "bytes32",
          "name": "transferId",
          "type": "bytes32"
        }
      ],
      "name": "getTransfer",
      "outputs": [
        {
          "components": [
            {
              "internalType": "address",
              "name": "sender",
              "type": "address"
            },
            {
              "internalType": "string",
              "name": "tonRecipient",
              "type": "string"
            },
            {
              "internalType": "address",
              "name": "token",
              "type": "address"
            },
            {
              "internalType": "uint256",
              "name": "amount",
              "type": "uint256"
            },
            {
              "internalType": "uint256",
              "name": "fee",
              "type": "uint256"
            },
            {
              "internalType": "uint256",
              "name": "timestamp",
              "type": "uint256"
            },
            {
              "internalType": "bytes32",
              "name": "tonTxHash",
              "type": "bytes32"
            },
            {
              "internalType": "enum PolygonBridge.TransferStatus",
              "name": "status",
              "type": "uint8"
            },
            {
              "internalType": "uint256",
              "name": "confirmations",
              "type": "uint256"
            }
          ],
          "internalType": "struct PolygonBridge.BridgeTransfer",
          "name": "",
          "type": "tuple"
        }
      ],
      "stateMutability": "view",
      "type": "function"
    },
    {
      "inputs": [
        {
          "internalType": "bytes32",
          "name": "role",
          "type": "bytes32"
        },
        {
          "internalType": "address",
          "name": "account",
          "type": "address"
        }
      ],
      "name": "grantRole",
      "outputs": [],
      "stateMutability": "nonpayable",
      "type": "function"
    },
    {
      "inputs": [
        {
          "internalType": "bytes32",
          "name": "role",
          "type": "bytes32"
        },
        {
          "internalType": "address",
          "name": "account",
          "type": "address"
        }
      ],
      "name": "hasRole",
      "outputs": [
        {
          "internalType": "bool",
          "name": "",
          "type": "bool"
        }
      ],
      "stateMutability": "view",
      "type": "function"
    },
    {
      "inputs": [
        {
          "internalType": "address",
          "name": "_admin",
          "type": "address"
        },
        {
          "internalType": "address",
          "name": "_feeCollector",
          "type": "address"
        },
        {
          "components": [
            {
              "internalType": "uint256",
              "name": "minBridgeAmount",
              "type": "uint256"
            },
            {
              "internalType": "uint256",
              "name": "maxBridgeAmount",
              "type": "uint256"
            },
            {
              "internalType": "uint256",
              "name": "feeBasisPoints",
              "type": "uint256"
            },
            {
              "internalType": "uint256",
              "name": "relayerThreshold",
              "type": "uint256"
            },
            {
              "internalType": "bool",
              "name": "enabled",
              "type": "bool"
            }
          ],
          "internalType": "struct PolygonBridge.BridgeConfig",
          "name": "_config",
          "type": "tuple"
        }
      ],
      "name": "initialize",
      "outputs": [],
      "stateMutability": "nonpayable",
      "type": "function"
    },
    {
      "inputs": [],
      "name": "pause",
      "outputs": [],
      "stateMutability": "nonpayable",
      "type": "function"
    },
    {
      "inputs": [],
      "name": "paused",
      "outputs": [
        {
          "internalType": "bool",
          "name": "",
          "type": "bool"
        }
      ],
      "stateMutability": "view",
      "type": "function"
    },
    {
      "inputs": [
        {
          "internalType": "bytes32",
          "name": "",
          "type": "bytes32"
        },
        {
          "internalType": "address",
          "name": "",
          "type": "address"
        }
      ],
      "name": "relayerConfirmations",
      "outputs": [
        {
          "internalType": "bool",
          "name": "",
          "type": "bool"
        }
      ],
      "stateMutability": "view",
      "type": "function"
    },
    {
      "inputs": [
        {
          "internalType": "bytes32",
          "name": "role",
          "type": "bytes32"
        },
        {
          "internalType": "address",
          "name": "callerConfirmation",
          "type": "address"
        }
      ],
      "name": "renounceRole",
      "outputs": [],
      "stateMutability": "nonpayable",
      "type": "function"
    },
    {
      "inputs": [
        {
          "internalType": "bytes32",
          "name": "role",
          "type": "bytes32"
        },
        {
          "internalType": "address",
          "name": "account",
          "type": "address"
        }
      ],
      "name": "revokeRole",
      "outputs": [],
      "stateMutability": "nonpayable",
      "type": "function"
    },
    {
      "inputs": [
        {
          "internalType": "address",
          "name": "token",
          "type": "address"
        },
        {
          "internalType": "bool",
          "name": "supported",
          "type": "bool"
        }
      ],
      "name": "setSupportedToken",
      "outputs": [],
      "stateMutability": "nonpayable",
      "type": "function"
    },
    {
      "inputs": [
        {
          "internalType": "address",
          "name": "",
          "type": "address"
        }
      ],
      "name": "supportedTokens",
      "outputs": [
        {
          "internalType": "bool",
          "name": "",
          "type": "bool"
        }
      ],
      "stateMutability": "view",
      "type": "function"
    },
    {
      "inputs": [
        {
          "internalType": "bytes4",
          "name": "interfaceId",
          "type": "bytes4"
        }
      ],
      "name": "supportsInterface",
      "outputs": [
        {
          "internalType": "bool",
          "name": "",
          "type": "bool"
        }
      ],
      "stateMutability": "view",
      "type": "function"
    },
    {
      "inputs": [],
      "name": "transferNonce",
      "outputs": [
        {
          "internalType": "uint256",
          "name": "",
          "type": "uint256"
        }
      ],
      "stateMutability": "view",
      "type": "function"
    },
    {
      "inputs": [
        {
          "internalType": "bytes32",
          "name": "",
          "type": "bytes32"
        }
      ],
      "name": "transfers",
      "outputs": [
        {
          "internalType": "address",
          "name": "sender",
          "type": "address"
        },
        {
          "internalType": "string",
          "name": "tonRecipient",
          "type": "string"
        },
        {
          "internalType": "address",
          "name": "token",
          "type": "address"
        },
        {
          "internalType": "uint256",
          "name": "amount",
          "type": "uint256"
        },
        {
          "internalType": "uint256",
          "name": "fee",
          "type": "uint256"
        },
        {
          "internalType": "uint256",
          "name": "timestamp",
          "type": "uint256"
        },
        {
          "internalType": "bytes32",
          "name": "tonTxHash",
          "type": "bytes32"
        },
        {
          "internalType": "enum PolygonBridge.TransferStatus",
          "name": "status",
          "type": "uint8"
        },
        {
          "internalType": "uint256",
          "name": "confirmations",
          "type": "uint256"
        }
      ],
      "stateMutability": "view",
      "type": "function"
    },
    {
      "inputs": [
        {
          "internalType": "address",
          "name": "recipient",
          "type": "address"
        },
        {
          "internalType": "address",
          "name": "token",
          "type": "address"
        },
        {
          "internalType": "uint256",
          "name": "amount",
          "type": "uint256"
        },
        {
          "internalType": "bytes32",
          "name": "tonTxHash",
          "type": "bytes32"
        }
      ],
      "name": "unlockTokens",
      "outputs": [],
      "stateMutability": "nonpayable",
      "type": "function"
    },
    {
      "inputs": [],
      "name": "unpause",
      "outputs": [],
      "stateMutability": "nonpayable",
      "type": "function"
    },
    {
      "inputs": [
        {
          "components": [
            {
              "internalType": "uint256",
              "name": "minBridgeAmount",
              "type": "uint256"
            },
            {
              "internalType": "uint256",
              "name": "maxBridgeAmount",
              "type": "uint256"
            },
            {
              "internalType": "uint256",
              "name": "feeBasisPoints",
              "type": "uint256"
            },
            {
              "internalType": "uint256",
              "name": "relayerThreshold",
              "type": "uint256"
            },
            {
              "internalType": "bool",
              "name": "enabled",
              "type": "bool"
            }
          ],
          "internalType": "struct PolygonBridge.BridgeConfig",
          "name": "_config",
          "type": "tuple"
        }
      ],
      "name": "updateConfig",
      "outputs": [],
      "stateMutability": "nonpayable",
      "type": "function"
    },
    {
      "inputs": [],
      "name": "withdrawFees",
      "outputs": [],
      "stateMutability": "nonpayable",
      "type": "function"
    },
    {
      "stateMutability": "payable",
      "type": "receive"
    }
  ],
  "bytecode": "0x6080604052348015600e575f5ffd5b5060156019565b60c9565b7ff0c57e16840df040f15088dc2f81fe391c3923bec73e23a9662efc9c229c6a00805468010000000000000000900460ff161560685760405163f92ee8a960e01b815260040160405180910390fd5b80546001600160401b039081161460c65780546001600160401b0319166001600160401b0390811782556040519081527fc7f505b2f371ae2175ee4913f4499e1f2633a7b5936321eed1cdaeb6115181d29060200160405180910390a15b50565b612d33806100d65f395ff3fe6080604052600436106101bc575f3560e01c806368c4ac26116100f2578063b1a791b511610092578063e63ab1e911610062578063e63ab1e914610600578063e798646614610633578063f5b541a614610652578063f664d20814610685575f5ffd5b8063b1a791b51461055c578063b8ed12a41461057b578063c415b95c14610590578063d547741f146105e1575f5ffd5b80639003adfe116100cd5780639003adfe1461049157806391d14854146104a6578063926d7d7f14610516578063a217fddf14610549575f5ffd5b806368c4ac26146103fd57806379502c551461042b5780638456cb591461047d575f5ffd5b806336568abe1161015d5780633f4ba83a116101385780633f4ba83a14610366578063476343ee1461037a578063541f86301461038e5780635c975abb146103c7575f5ffd5b806336568abe146102f457806336a55b38146103135780633c64f04b14610332575f5ffd5b8063248a9ca311610198578063248a9ca31461023d578063260958a51461028a5780632f2ff15d146102b6578063304ccad3146102d5575f5ffd5b806232f4ee146101c757806301ffc9a7146101e85780631be596b11461021c575f5ffd5b366101c357005b5f5ffd5b3480156101d2575f5ffd5b506101e66101e1366004612485565b6106a4565b005b3480156101f3575f5ffd5b5061020761020236600461254e565b610a45565b60405190151581526020015b60405180910390f35b61022f61022a366004612594565b610add565b604051908152602001610213565b348015610248575f5ffd5b5061022f610257366004612618565b5f9081527f02dd7bc7dec4dceedda775e58dd541e08a116c6c53815c0bd028192f7b626800602052604090206001015490565b348015610295575f5ffd5b506102a96102a4366004612618565b610f7b565b60405161021391906126e1565b3480156102c1575f5ffd5b506101e66102d03660046127a0565b6110d8565b3480156102e0575f5ffd5b506101e66102ef3660046127ca565b611121565b3480156102ff575f5ffd5b506101e661030e3660046127a0565b6114de565b34801561031e575f5ffd5b506101e661032d366004612618565b61153c565b34801561033d575f5ffd5b5061035161034c366004612618565b611755565b60405161021399989796959493929190612809565b348015610371575f5ffd5b506101e6611857565b348015610385575f5ffd5b506101e661186c565b348015610399575f5ffd5b506102076103a83660046127a0565b600660209081525f928352604080842090915290825290205460ff1681565b3480156103d2575f5ffd5b507fcd5ed15c6e187e77e9aee88184c21f4f2182ab5827cb3b7e07fbedcd63f033005460ff16610207565b348015610408575f5ffd5b50610207610417366004612891565b600a6020525f908152604090205460ff1681565b348015610436575f5ffd5b505f54600154600254600354600454610453949392919060ff1685565b6040805195865260208601949094529284019190915260608301521515608082015260a001610213565b348015610488575f5ffd5b506101e6611949565b34801561049c575f5ffd5b5061022f60095481565b3480156104b1575f5ffd5b506102076104c03660046127a0565b5f9182527f02dd7bc7dec4dceedda775e58dd541e08a116c6c53815c0bd028192f7b6268006020908152604080842073ffffffffffffffffffffffffffffffffffffffff93909316845291905290205460ff1690565b348015610521575f5ffd5b5061022f7fe2b7fb3b832174769106daebcfd6d1970523240dda11281102db9363b83b0dc481565b348015610554575f5ffd5b5061022f5f81565b348015610567575f5ffd5b506101e66105763660046128aa565b61197b565b348015610586575f5ffd5b5061022f60075481565b34801561059b575f5ffd5b506008546105bc9073ffffffffffffffffffffffffffffffffffffffff1681565b60405173ffffffffffffffffffffffffffffffffffffffff9091168152602001610213565b3480156105ec575f5ffd5b506101e66105fb3660046127a0565b611a85565b34801561060b575f5ffd5b5061022f7f65d7a28e3265b37a6474929f336521b332c1681b933f6cb9f3376673440d862a81565b34801561063e575f5ffd5b506101e661064d3660046128c3565b611ac8565b34801561065d575f5ffd5b5061022f7f97667070c54ef182b0f5858b034beac1b6f3089aa2d3188bb1e8929f4fa9b92981565b348015610690575f5ffd5b506101e661069f3660046128f8565b611b7c565b5f6106ad611c74565b805490915060ff68010000000000000000820416159067ffffffffffffffff165f811580156106d95750825b90505f8267ffffffffffffffff1660011480156106f55750303b155b905081158015610703575080155b1561073a576040517ff92ee8a900000000000000000000000000000000000000000000000000000000815260040160405180910390fd5b84547fffffffffffffffffffffffffffffffffffffffffffffffff0000000000000000166001178555831561079b5784547fffffffffffffffffffffffffffffffffffffffffffffff00ffffffffffffffff16680100000000000000001785555b73ffffffffffffffffffffffffffffffffffffffff881661081d576040517f08c379a000000000000000000000000000000000000000000000000000000000815260206004820152600d60248201527f496e76616c69642061646d696e0000000000000000000000000000000000000060448201526064015b60405180910390fd5b73ffffffffffffffffffffffffffffffffffffffff871661089a576040517f08c379a000000000000000000000000000000000000000000000000000000000815260206004820152601560248201527f496e76616c69642066656520636f6c6c6563746f7200000000000000000000006044820152606401610814565b6108a2611c9c565b6108aa611c9c565b6108b2611ca6565b6108bc5f89611cb6565b506108e77f97667070c54ef182b0f5858b034beac1b6f3089aa2d3188bb1e8929f4fa9b92989611cb6565b506109127f65d7a28e3265b37a6474929f336521b332c1681b933f6cb9f3376673440d862a89611cb6565b506008805473ffffffffffffffffffffffffffffffffffffffff89167fffffffffffffffffffffffff000000000000000000000000000000000000000090911617905585515f9081556020808801516001908155604089015160025560608901516003556080890151600480549115157fffffffffffffffffffffffffffffffffffffffffffffffffffffffffffffff00928316179055928052600a9091527f13da86008ba1c6922daee3e07db95305ef49ebced9f5467a0b8613fcc6b343e380549092161790558315610a3b5784547fffffffffffffffffffffffffffffffffffffffffffffff00ffffffffffffffff168555604051600181527fc7f505b2f371ae2175ee4913f4499e1f2633a7b5936321eed1cdaeb6115181d29060200160405180910390a15b5050505050505050565b5f7fffffffff0000000000000000000000000000000000000000000000000000000082167f7965db0b000000000000000000000000000000000000000000000000000000001480610ad757507f01ffc9a7000000000000000000000000000000000000000000000000000000007fffffffff000000000000000000000000000000000000000000000000000000008316145b92915050565b5f610ae6611dd4565b610aee611e30565b73ffffffffffffffffffffffffffffffffffffffff83165f908152600a602052604090205460ff16610b4c576040517f6a17288200000000000000000000000000000000000000000000000000000000815260040160405180910390fd5b5f849003610b86576040517f9c8d2cd200000000000000000000000000000000000000000000000000000000815260040160405180910390fd5b5f54821015610bc1576040517f5945ea5600000000000000000000000000000000000000000000000000000000815260040160405180910390fd5b600154821115610bfd576040517f8ebd11e000000000000000000000000000000000000000000000000000000000815260040160405180910390fd5b6002545f9061271090610c109085612945565b610c1a919061295c565b90505f610c278285612994565b9050338787878760075f815480929190610c40906129a7565b9190505542604051602001610c5b97969594939291906129de565b604080517fffffffffffffffffffffffffffffffffffffffffffffffffffffffffffffffe08184030181529190528051602090910120925073ffffffffffffffffffffffffffffffffffffffff8516610d1c57833414610d17576040517f08c379a000000000000000000000000000000000000000000000000000000000815260206004820152601460248201527f496e636f727265637420504f4c20616d6f756e740000000000000000000000006044820152606401610814565b610d3e565b610d3e73ffffffffffffffffffffffffffffffffffffffff8616333087611eb1565b6040518061012001604052803373ffffffffffffffffffffffffffffffffffffffff16815260200188888080601f0160208091040260200160405190810160405280939291908181526020018383808284375f92018290525093855250505073ffffffffffffffffffffffffffffffffffffffff88166020830152604082018490526060820185905242608083015260a0820181905260c09091019081525f60209182018190528581526005825260409020825181547fffffffffffffffffffffffff00000000000000000000000000000000000000001673ffffffffffffffffffffffffffffffffffffffff909116178155908201516001820190610e449082612af2565b506040820151816002015f6101000a81548173ffffffffffffffffffffffffffffffffffffffff021916908373ffffffffffffffffffffffffffffffffffffffff160217905550606082015181600301556080820151816004015560a0820151816005015560c0820151816006015560e0820151816007015f6101000a81548160ff02191690836003811115610edc57610edc61267b565b021790555061010082015181600801559050508160095f828254610f009190612c09565b9091555050604051339084907e31544873b9d3c92cec3feec845c741875de1cfacf33b5cb5dcbd930858951990610f40908b908b908b9088908a90612c1c565b60405180910390a35050610f7360017f9b779b17422d0df92223018b32b4d1fa46e071723d6817e2486d003becc55f0055565b949350505050565b610f836123a2565b5f8281526005602090815260409182902082516101208101909352805473ffffffffffffffffffffffffffffffffffffffff1683526001810180549192840191610fcc90612a5d565b80601f0160208091040260200160405190810160405280929190818152602001828054610ff890612a5d565b80156110435780601f1061101a57610100808354040283529160200191611043565b820191905f5260205f20905b81548152906001019060200180831161102657829003601f168201915b5050509183525050600282015473ffffffffffffffffffffffffffffffffffffffff16602082015260038083015460408301526004830154606083015260058301546080830152600683015460a0830152600783015460c09092019160ff16908111156110b2576110b261267b565b60038111156110c3576110c361267b565b81526020016008820154815250509050919050565b5f8281527f02dd7bc7dec4dceedda775e58dd541e08a116c6c53815c0bd028192f7b626800602052604090206001015461111181611f60565b61111b8383611cb6565b50505050565b7fe2b7fb3b832174769106daebcfd6d1970523240dda11281102db9363b83b0dc461114b81611f60565b611153611e30565b61115b611dd4565b73ffffffffffffffffffffffffffffffffffffffff85166111d8576040517f08c379a000000000000000000000000000000000000000000000000000000000815260206004820152601160248201527f496e76616c696420726563697069656e740000000000000000000000000000006044820152606401610814565b73ffffffffffffffffffffffffffffffffffffffff84165f908152600a602052604090205460ff16611236576040517f6a17288200000000000000000000000000000000000000000000000000000000815260040160405180910390fd5b6040805160208082018590527fffffffffffffffffffffffffffffffffffffffff000000000000000000000000606089811b82168486015288901b166054830152606880830187905283518084039091018152608890920183528151918101919091205f81815260059092529181206007015460ff1660038111156112bd576112bd61267b565b14806112ea57505f8181526005602052604090205473ffffffffffffffffffffffffffffffffffffffff16155b611350576040517f08c379a000000000000000000000000000000000000000000000000000000000815260206004820152601160248201527f416c72656164792070726f6365737365640000000000000000000000000000006044820152606401610814565b73ffffffffffffffffffffffffffffffffffffffff8516611437575f8673ffffffffffffffffffffffffffffffffffffffff16856040515f6040518083038185875af1925050503d805f81146113c1576040519150601f19603f3d011682016040523d82523d5f602084013e6113c6565b606091505b5050905080611431576040517f08c379a000000000000000000000000000000000000000000000000000000000815260206004820152601360248201527f504f4c207472616e73666572206661696c6564000000000000000000000000006044820152606401610814565b50611458565b61145873ffffffffffffffffffffffffffffffffffffffff86168786611f6a565b6040805173ffffffffffffffffffffffffffffffffffffffff87811682526020820187905288169183917f11166ddd80cabef4f8e12277b49889d6f30ca5b9b7f9db0f548bdc6490b1d940910160405180910390a3506114d760017f9b779b17422d0df92223018b32b4d1fa46e071723d6817e2486d003becc55f0055565b5050505050565b73ffffffffffffffffffffffffffffffffffffffff8116331461152d576040517f6697b23200000000000000000000000000000000000000000000000000000000815260040160405180910390fd5b6115378282611fa8565b505050565b7fe2b7fb3b832174769106daebcfd6d1970523240dda11281102db9363b83b0dc461156681611f60565b61156e611dd4565b5f828152600560205260409020805473ffffffffffffffffffffffffffffffffffffffff166115c9576040517f5688606600000000000000000000000000000000000000000000000000000000815260040160405180910390fd5b5f600782015460ff1660038111156115e3576115e361267b565b1461161a576040517f247ff34500000000000000000000000000000000000000000000000000000000815260040160405180910390fd5b5f83815260066020908152604080832033845290915290205460ff161561166d576040517f5f8a9c0b00000000000000000000000000000000000000000000000000000000815260040160405180910390fd5b5f838152600660209081526040808320338452909152812080547fffffffffffffffffffffffffffffffffffffffffffffffffffffffffffffff00166001179055600882018054916116be836129a7565b91905055503373ffffffffffffffffffffffffffffffffffffffff16837f56d351f29f0af8a2905b75593bcdf39bb3300e4207130a2cf74c5049c9665003836008015460405161171091815260200190565b60405180910390a36003546008820154106115375760070180547fffffffffffffffffffffffffffffffffffffffffffffffffffffffffffffff001660011790555050565b60056020525f90815260409020805460018201805473ffffffffffffffffffffffffffffffffffffffff909216929161178d90612a5d565b80601f01602080910402602001604051908101604052809291908181526020018280546117b990612a5d565b80156118045780601f106117db57610100808354040283529160200191611804565b820191905f5260205f20905b8154815290600101906020018083116117e757829003601f168201915b50505050600283015460038401546004850154600586015460068701546007880154600890980154969773ffffffffffffffffffffffffffffffffffffffff909516969395509193909260ff9091169089565b5f61186181611f60565b611869612084565b50565b5f61187681611f60565b600980545f9182905560085460405191929173ffffffffffffffffffffffffffffffffffffffff9091169083908381818185875af1925050503d805f81146118d9576040519150601f19603f3d011682016040523d82523d5f602084013e6118de565b606091505b5050905080611537576040517f08c379a000000000000000000000000000000000000000000000000000000000815260206004820152601360248201527f466565207472616e73666572206661696c6564000000000000000000000000006044820152606401610814565b7f65d7a28e3265b37a6474929f336521b332c1681b933f6cb9f3376673440d862a61197381611f60565b611869612121565b7f97667070c54ef182b0f5858b034beac1b6f3089aa2d3188bb1e8929f4fa9b9296119a581611f60565b60208201358235106119e3576040517fc52a9bd300000000000000000000000000000000000000000000000000000000815260040160405180910390fd5b6103e882604001351115611a23576040517fc52a9bd300000000000000000000000000000000000000000000000000000000815260040160405180910390fd5b815f611a2f8282612c95565b505060408051833581526020808501359082015283820135818301526060808501359082015290517f84d25455db084cf777a0a4a00fcc28946b3a2ebc5cc866ef8820ab8571dbdd369181900360800190a15050565b5f8281527f02dd7bc7dec4dceedda775e58dd541e08a116c6c53815c0bd028192f7b6268006020526040902060010154611abe81611f60565b61111b8383611fa8565b7f97667070c54ef182b0f5858b034beac1b6f3089aa2d3188bb1e8929f4fa9b929611af281611f60565b73ffffffffffffffffffffffffffffffffffffffff83165f818152600a602090815260409182902080547fffffffffffffffffffffffffffffffffffffffffffffffffffffffffffffff001686151590811790915591519182527fd86c88b4a367d9b81a6e00c9d3f7d01657bffef358fa8968c91c045ae99f0d52910160405180910390a2505050565b7f97667070c54ef182b0f5858b034beac1b6f3089aa2d3188bb1e8929f4fa9b929611ba681611f60565b5f8381526005602052604090206001600782015460ff166003811115611bce57611bce61267b565b14611c05576040517fe16db4b300000000000000000000000000000000000000000000000000000000815260040160405180910390fd5b600681018390556007810180547fffffffffffffffffffffffffffffffffffffffffffffffffffffffffffffff0016600217905560405183815284907fb001adc09f378b74ae6281f674ad2ea5c321c7973cc6194b54cf1752b2f0c4459060200160405180910390a250505050565b5f807ff0c57e16840df040f15088dc2f81fe391c3923bec73e23a9662efc9c229c6a00610ad7565b611ca461219a565b565b611cae61219a565b611ca46121d8565b5f8281527f02dd7bc7dec4dceedda775e58dd541e08a116c6c53815c0bd028192f7b6268006020818152604080842073ffffffffffffffffffffffffffffffffffffffff8616855290915282205460ff16611dcb575f8481526020828152604080832073ffffffffffffffffffffffffffffffffffffffff87168452909152902080547fffffffffffffffffffffffffffffffffffffffffffffffffffffffffffffff00166001179055611d673390565b73ffffffffffffffffffffffffffffffffffffffff168373ffffffffffffffffffffffffffffffffffffffff16857f2f8788117e7eff1d82e926ec794901d17c78024a50270940304540a733656f0d60405160405180910390a46001915050610ad7565b5f915050610ad7565b7fcd5ed15c6e187e77e9aee88184c21f4f2182ab5827cb3b7e07fbedcd63f033005460ff1615611ca4576040517fd93c066500000000000000000000000000000000000000000000000000000000815260040160405180910390fd5b7f9b779b17422d0df92223018b32b4d1fa46e071723d6817e2486d003becc55f0080547ffffffffffffffffffffffffffffffffffffffffffffffffffffffffffffffffe01611eab576040517f3ee5aeb500000000000000000000000000000000000000000000000000000000815260040160405180910390fd5b60029055565b60405173ffffffffffffffffffffffffffffffffffffffff848116602483015283811660448301526064820183905261111b9186918216906323b872dd906084015b604051602081830303815290604052915060e01b6020820180517bffffffffffffffffffffffffffffffffffffffffffffffffffffffff83818316178352505050506121e0565b60017f9b779b17422d0df92223018b32b4d1fa46e071723d6817e2486d003becc55f0055565b611869813361227f565b60405173ffffffffffffffffffffffffffffffffffffffff83811660248301526044820183905261153791859182169063a9059cbb90606401611ef3565b5f8281527f02dd7bc7dec4dceedda775e58dd541e08a116c6c53815c0bd028192f7b6268006020818152604080842073ffffffffffffffffffffffffffffffffffffffff8616855290915282205460ff1615611dcb575f8481526020828152604080832073ffffffffffffffffffffffffffffffffffffffff8716808552925280832080547fffffffffffffffffffffffffffffffffffffffffffffffffffffffffffffff0016905551339287917ff6391f5c32d9c69d2a47ea670b442974b53935d1edc7fd64eb21e047a839171b9190a46001915050610ad7565b61208c612329565b7fcd5ed15c6e187e77e9aee88184c21f4f2182ab5827cb3b7e07fbedcd63f0330080547fffffffffffffffffffffffffffffffffffffffffffffffffffffffffffffff001681557f5db9ee0a495bf2e6ff9c91a7834c1ba4fdd244a5e8aa4e537bd38aeae4b073aa335b60405173ffffffffffffffffffffffffffffffffffffffff909116815260200160405180910390a150565b612129611dd4565b7fcd5ed15c6e187e77e9aee88184c21f4f2182ab5827cb3b7e07fbedcd63f0330080547fffffffffffffffffffffffffffffffffffffffffffffffffffffffffffffff001660011781557f62e78cea01bee320cd4e420270b5ea74000d11b0c9f74754ebdbfc544b05a258336120f6565b6121a2612384565b611ca4576040517fd7e6bcf800000000000000000000000000000000000000000000000000000000815260040160405180910390fd5b611f3a61219a565b5f5f60205f8451602086015f885af1806121ff576040513d5f823e3d81fd5b50505f513d91508115612216578060011415612230565b73ffffffffffffffffffffffffffffffffffffffff84163b155b1561111b576040517f5274afe700000000000000000000000000000000000000000000000000000000815273ffffffffffffffffffffffffffffffffffffffff85166004820152602401610814565b5f8281527f02dd7bc7dec4dceedda775e58dd541e08a116c6c53815c0bd028192f7b6268006020908152604080832073ffffffffffffffffffffffffffffffffffffffff8516845290915290205460ff16612325576040517fe2517d3f00000000000000000000000000000000000000000000000000000000815273ffffffffffffffffffffffffffffffffffffffff8216600482015260248101839052604401610814565b5050565b7fcd5ed15c6e187e77e9aee88184c21f4f2182ab5827cb3b7e07fbedcd63f033005460ff16611ca4576040517f8dfc202b00000000000000000000000000000000000000000000000000000000815260040160405180910390fd5b5f61238d611c74565b5468010000000000000000900460ff16919050565b6040518061012001604052805f73ffffffffffffffffffffffffffffffffffffffff168152602001606081526020015f73ffffffffffffffffffffffffffffffffffffffff1681526020015f81526020015f81526020015f81526020015f81526020015f60038111156124175761241761267b565b81526020015f81525090565b803573ffffffffffffffffffffffffffffffffffffffff81168114612446575f5ffd5b919050565b7f4e487b71000000000000000000000000000000000000000000000000000000005f52604160045260245ffd5b8015158114611869575f5ffd5b5f5f5f83850360e0811215612498575f5ffd5b6124a185612423565b93506124af60208601612423565b925060a07fffffffffffffffffffffffffffffffffffffffffffffffffffffffffffffffc0820112156124e0575f5ffd5b5060405160a0810181811067ffffffffffffffff821117156125045761250461244b565b6040908152858101358252606080870135602084015260808701359183019190915260a08601359082015260c085013561253d81612478565b608082015292959194509192509050565b5f6020828403121561255e575f5ffd5b81357fffffffff000000000000000000000000000000000000000000000000000000008116811461258d575f5ffd5b9392505050565b5f5f5f5f606085870312156125a7575f5ffd5b843567ffffffffffffffff8111156125bd575f5ffd5b8501601f810187136125cd575f5ffd5b803567ffffffffffffffff8111156125e3575f5ffd5b8760208284010111156125f4575f5ffd5b602091820195509350612608908601612423565b9396929550929360400135925050565b5f60208284031215612628575f5ffd5b5035919050565b5f81518084528060208401602086015e5f6020828601015260207fffffffffffffffffffffffffffffffffffffffffffffffffffffffffffffffe0601f83011685010191505092915050565b7f4e487b71000000000000000000000000000000000000000000000000000000005f52602160045260245ffd5b600481106126dd577f4e487b71000000000000000000000000000000000000000000000000000000005f52602160045260245ffd5b9052565b6020815261270860208201835173ffffffffffffffffffffffffffffffffffffffff169052565b5f6020830151610120604084015261272461014084018261262f565b9050604084015161274d606085018273ffffffffffffffffffffffffffffffffffffffff169052565b5060608401516080840152608084015160a084015260a084015160c084015260c084015160e084015260e08401516127896101008501826126a8565b506101008401516101208401528091505092915050565b5f5f604083850312156127b1575f5ffd5b823591506127c160208401612423565b90509250929050565b5f5f5f5f608085870312156127dd575f5ffd5b6127e685612423565b93506127f460208601612423565b93969395505050506040820135916060013590565b73ffffffffffffffffffffffffffffffffffffffff8a16815261012060208201525f61283961012083018b61262f565b905073ffffffffffffffffffffffffffffffffffffffff891660408301528760608301528660808301528560a08301528460c083015261287c60e08301856126a8565b826101008301529a9950505050505050505050565b5f602082840312156128a1575f5ffd5b61258d82612423565b5f60a08284031280156128bb575f5ffd5b509092915050565b5f5f604083850312156128d4575f5ffd5b6128dd83612423565b915060208301356128ed81612478565b809150509250929050565b5f5f60408385031215612909575f5ffd5b50508035926020909101359150565b7f4e487b71000000000000000000000000000000000000000000000000000000005f52601160045260245ffd5b8082028115828204841417610ad757610ad7612918565b5f8261298f577f4e487b71000000000000000000000000000000000000000000000000000000005f52601260045260245ffd5b500490565b81810381811115610ad757610ad7612918565b5f7fffffffffffffffffffffffffffffffffffffffffffffffffffffffffffffffff82036129d7576129d7612918565b5060010190565b7fffffffffffffffffffffffffffffffffffffffff0000000000000000000000008860601b1681528587601483013760609490941b7fffffffffffffffffffffffffffffffffffffffff000000000000000000000000166014959094019485019390935260288401919091526048830152606882015260880192915050565b600181811c90821680612a7157607f821691505b602082108103612aa8577f4e487b71000000000000000000000000000000000000000000000000000000005f52602260045260245ffd5b50919050565b601f82111561153757805f5260205f20601f840160051c81016020851015612ad35750805b601f840160051c820191505b818110156114d7575f8155600101612adf565b815167ffffffffffffffff811115612b0c57612b0c61244b565b612b2081612b1a8454612a5d565b84612aae565b6020601f821160018114612b71575f8315612b3b5750848201515b7fffffffffffffffffffffffffffffffffffffffffffffffffffffffffffffffff600385901b1c1916600184901b1784556114d7565b5f848152602081207fffffffffffffffffffffffffffffffffffffffffffffffffffffffffffffffe08516915b82811015612bbe5787850151825560209485019460019092019101612b9e565b5084821015612bfa57868401517fffffffffffffffffffffffffffffffffffffffffffffffffffffffffffffffff600387901b60f8161c191681555b50505050600190811b01905550565b80820180821115610ad757610ad7612918565b60808152846080820152848660a08301375f60a086830101525f60a07fffffffffffffffffffffffffffffffffffffffffffffffffffffffffffffffe0601f880116830101905073ffffffffffffffffffffffffffffffffffffffff851660208301528360408301528260608301529695505050505050565b81358155602082013560018201556040820135600282015560608201356003820155600481016080830135612cc981612478565b815490151560ff167fffffffffffffffffffffffffffffffffffffffffffffffffffffffffffffff0091909116179055505056fea26469706673582212201581df51852313897de13d1b1882c1e4a9c0655761888fb0b9fbba303258ee5464736f6c634300081b0033",
  "linkReferences": {},
  "deployedLinkReferences": {},
  "immutableReferences": {},
  "inputSourceName": "project/contracts/polygon/bridge/PolygonBridge.sol",
  "buildInfoId": "solc-0_8_27-773fd8cff86dde4209c443dd9323bf494256b405"
}